{
  "contractName": "SolnSquareVerifier",
  "abi": [
    {
      "anonymous": false,
      "inputs": [
        {
          "indexed": true,
          "internalType": "address",
          "name": "owner",
          "type": "address"
        },
        {
          "indexed": true,
          "internalType": "address",
          "name": "approved",
          "type": "address"
        },
        {
          "indexed": true,
          "internalType": "uint256",
          "name": "tokenId",
          "type": "uint256"
        }
      ],
      "name": "Approval",
      "type": "event"
    },
    {
      "anonymous": false,
      "inputs": [
        {
          "indexed": true,
          "internalType": "address",
          "name": "owner",
          "type": "address"
        },
        {
          "indexed": true,
          "internalType": "address",
          "name": "operator",
          "type": "address"
        },
        {
          "indexed": false,
          "internalType": "bool",
          "name": "approved",
          "type": "bool"
        }
      ],
      "name": "ApprovalForAll",
      "type": "event"
    },
    {
      "anonymous": false,
      "inputs": [
        {
          "indexed": false,
          "internalType": "address",
          "name": "caller",
          "type": "address"
        }
      ],
      "name": "Paused",
      "type": "event"
    },
    {
      "anonymous": false,
      "inputs": [
        {
          "indexed": true,
          "internalType": "address",
          "name": "from",
          "type": "address"
        },
        {
          "indexed": true,
          "internalType": "address",
          "name": "to",
          "type": "address"
        },
        {
          "indexed": true,
          "internalType": "uint256",
          "name": "tokenId",
          "type": "uint256"
        }
      ],
      "name": "Transfer",
      "type": "event"
    },
    {
      "anonymous": false,
      "inputs": [
        {
          "indexed": false,
          "internalType": "address",
          "name": "caller",
          "type": "address"
        }
      ],
      "name": "Unpaused",
      "type": "event"
    },
    {
      "anonymous": false,
      "inputs": [
        {
          "indexed": false,
          "internalType": "address",
          "name": "oldOwner",
          "type": "address"
        },
        {
          "indexed": false,
          "internalType": "address",
          "name": "newOwner",
          "type": "address"
        }
      ],
      "name": "ownershipTransfered",
      "type": "event"
    },
    {
      "anonymous": false,
      "inputs": [
        {
          "indexed": false,
          "internalType": "uint256",
          "name": "solutionKey",
          "type": "uint256"
        },
        {
          "indexed": false,
          "internalType": "address",
          "name": "sender",
          "type": "address"
        }
      ],
      "name": "solutionAdded",
      "type": "event"
    },
    {
      "constant": false,
      "inputs": [
        {
          "internalType": "bytes32",
          "name": "_myid",
          "type": "bytes32"
        },
        {
          "internalType": "string",
          "name": "_result",
          "type": "string"
        }
      ],
      "name": "__callback",
      "outputs": [],
      "payable": false,
      "stateMutability": "nonpayable",
      "type": "function"
    },
    {
      "constant": false,
      "inputs": [
        {
          "internalType": "bytes32",
          "name": "_myid",
          "type": "bytes32"
        },
        {
          "internalType": "string",
          "name": "_result",
          "type": "string"
        },
        {
          "internalType": "bytes",
          "name": "_proof",
          "type": "bytes"
        }
      ],
      "name": "__callback",
      "outputs": [],
      "payable": false,
      "stateMutability": "nonpayable",
      "type": "function"
    },
    {
      "constant": false,
      "inputs": [
        {
          "internalType": "address",
          "name": "to",
          "type": "address"
        },
        {
          "internalType": "uint256",
          "name": "tokenId",
          "type": "uint256"
        }
      ],
      "name": "approve",
      "outputs": [],
      "payable": false,
      "stateMutability": "nonpayable",
      "type": "function"
    },
    {
      "constant": true,
      "inputs": [
        {
          "internalType": "address",
          "name": "owner",
          "type": "address"
        }
      ],
      "name": "balanceOf",
      "outputs": [
        {
          "internalType": "uint256",
          "name": "",
          "type": "uint256"
        }
      ],
      "payable": false,
      "stateMutability": "view",
      "type": "function"
    },
    {
      "constant": true,
      "inputs": [
        {
          "internalType": "uint256",
          "name": "tokenId",
          "type": "uint256"
        }
      ],
      "name": "getApproved",
      "outputs": [
        {
          "internalType": "address",
          "name": "",
          "type": "address"
        }
      ],
      "payable": false,
      "stateMutability": "view",
      "type": "function"
    },
    {
      "constant": false,
      "inputs": [],
      "name": "getMetadata",
      "outputs": [
        {
          "internalType": "string",
          "name": "",
          "type": "string"
        },
        {
          "internalType": "string",
          "name": "",
          "type": "string"
        },
        {
          "internalType": "string",
          "name": "",
          "type": "string"
        }
      ],
      "payable": false,
      "stateMutability": "nonpayable",
      "type": "function"
    },
    {
      "constant": true,
      "inputs": [],
      "name": "getOwnerAddress",
      "outputs": [
        {
          "internalType": "address",
          "name": "",
          "type": "address"
        }
      ],
      "payable": false,
      "stateMutability": "view",
      "type": "function"
    },
    {
      "constant": true,
      "inputs": [
        {
          "internalType": "address",
          "name": "owner",
          "type": "address"
        },
        {
          "internalType": "address",
          "name": "operator",
          "type": "address"
        }
      ],
      "name": "isApprovedForAll",
      "outputs": [
        {
          "internalType": "bool",
          "name": "",
          "type": "bool"
        }
      ],
      "payable": false,
      "stateMutability": "view",
      "type": "function"
    },
    {
      "constant": false,
      "inputs": [
        {
          "internalType": "address",
          "name": "to",
          "type": "address"
        },
        {
          "internalType": "uint256",
          "name": "tokenId",
          "type": "uint256"
        }
      ],
      "name": "mint",
      "outputs": [
        {
          "internalType": "bool",
          "name": "",
          "type": "bool"
        }
      ],
      "payable": false,
      "stateMutability": "nonpayable",
      "type": "function"
    },
    {
      "constant": true,
      "inputs": [
        {
          "internalType": "uint256",
          "name": "tokenId",
          "type": "uint256"
        }
      ],
      "name": "ownerOf",
      "outputs": [
        {
          "internalType": "address",
          "name": "",
          "type": "address"
        }
      ],
      "payable": false,
      "stateMutability": "view",
      "type": "function"
    },
    {
      "constant": false,
      "inputs": [
        {
          "internalType": "address",
          "name": "from",
          "type": "address"
        },
        {
          "internalType": "address",
          "name": "to",
          "type": "address"
        },
        {
          "internalType": "uint256",
          "name": "tokenId",
          "type": "uint256"
        }
      ],
      "name": "safeTransferFrom",
      "outputs": [],
      "payable": false,
      "stateMutability": "nonpayable",
      "type": "function"
    },
    {
      "constant": false,
      "inputs": [
        {
          "internalType": "address",
          "name": "from",
          "type": "address"
        },
        {
          "internalType": "address",
          "name": "to",
          "type": "address"
        },
        {
          "internalType": "uint256",
          "name": "tokenId",
          "type": "uint256"
        },
        {
          "internalType": "bytes",
          "name": "_data",
          "type": "bytes"
        }
      ],
      "name": "safeTransferFrom",
      "outputs": [],
      "payable": false,
      "stateMutability": "nonpayable",
      "type": "function"
    },
    {
      "constant": false,
      "inputs": [
        {
          "internalType": "address",
          "name": "to",
          "type": "address"
        },
        {
          "internalType": "bool",
          "name": "approved",
          "type": "bool"
        }
      ],
      "name": "setApprovalForAll",
      "outputs": [],
      "payable": false,
      "stateMutability": "nonpayable",
      "type": "function"
    },
    {
      "constant": false,
      "inputs": [
        {
          "internalType": "bool",
          "name": "value",
          "type": "bool"
        }
      ],
      "name": "setPause",
      "outputs": [],
      "payable": false,
      "stateMutability": "nonpayable",
      "type": "function"
    },
    {
      "constant": true,
      "inputs": [
        {
          "internalType": "bytes4",
          "name": "interfaceId",
          "type": "bytes4"
        }
      ],
      "name": "supportsInterface",
      "outputs": [
        {
          "internalType": "bool",
          "name": "",
          "type": "bool"
        }
      ],
      "payable": false,
      "stateMutability": "view",
      "type": "function"
    },
    {
      "constant": true,
      "inputs": [
        {
          "internalType": "uint256",
          "name": "index",
          "type": "uint256"
        }
      ],
      "name": "tokenByIndex",
      "outputs": [
        {
          "internalType": "uint256",
          "name": "",
          "type": "uint256"
        }
      ],
      "payable": false,
      "stateMutability": "view",
      "type": "function"
    },
    {
      "constant": true,
      "inputs": [
        {
          "internalType": "address",
          "name": "owner",
          "type": "address"
        },
        {
          "internalType": "uint256",
          "name": "index",
          "type": "uint256"
        }
      ],
      "name": "tokenOfOwnerByIndex",
      "outputs": [
        {
          "internalType": "uint256",
          "name": "",
          "type": "uint256"
        }
      ],
      "payable": false,
      "stateMutability": "view",
      "type": "function"
    },
    {
      "constant": true,
      "inputs": [
        {
          "internalType": "uint256",
          "name": "tokenId",
          "type": "uint256"
        }
      ],
      "name": "tokenURI",
      "outputs": [
        {
          "internalType": "string",
          "name": "",
          "type": "string"
        }
      ],
      "payable": false,
      "stateMutability": "view",
      "type": "function"
    },
    {
      "constant": true,
      "inputs": [],
      "name": "totalSupply",
      "outputs": [
        {
          "internalType": "uint256",
          "name": "",
          "type": "uint256"
        }
      ],
      "payable": false,
      "stateMutability": "view",
      "type": "function"
    },
    {
      "constant": false,
      "inputs": [
        {
          "internalType": "address",
          "name": "from",
          "type": "address"
        },
        {
          "internalType": "address",
          "name": "to",
          "type": "address"
        },
        {
          "internalType": "uint256",
          "name": "tokenId",
          "type": "uint256"
        }
      ],
      "name": "transferFrom",
      "outputs": [],
      "payable": false,
      "stateMutability": "nonpayable",
      "type": "function"
    },
    {
      "constant": false,
      "inputs": [
        {
          "internalType": "address",
          "name": "newOwner",
          "type": "address"
        }
      ],
      "name": "transferOwnership",
      "outputs": [],
      "payable": false,
      "stateMutability": "nonpayable",
      "type": "function"
    },
    {
      "constant": true,
      "inputs": [],
      "name": "getSolutionLength",
      "outputs": [
        {
          "internalType": "uint256",
          "name": "",
          "type": "uint256"
        }
      ],
      "payable": false,
      "stateMutability": "view",
      "type": "function"
    },
    {
      "constant": false,
      "inputs": [
        {
          "internalType": "address",
          "name": "Solver",
          "type": "address"
        }
      ],
      "name": "addSolution",
      "outputs": [
        {
          "internalType": "uint256",
          "name": "",
          "type": "uint256"
        }
      ],
      "payable": false,
      "stateMutability": "nonpayable",
      "type": "function"
    },
    {
      "constant": false,
      "inputs": [
        {
          "internalType": "address",
          "name": "to",
          "type": "address"
        },
        {
          "internalType": "uint256",
          "name": "tokenId",
          "type": "uint256"
        },
        {
          "components": [
            {
              "components": [
                {
                  "internalType": "uint256",
                  "name": "X",
                  "type": "uint256"
                },
                {
                  "internalType": "uint256",
                  "name": "Y",
                  "type": "uint256"
                }
              ],
              "internalType": "struct Pairing.G1Point",
              "name": "a",
              "type": "tuple"
            },
            {
              "components": [
                {
                  "internalType": "uint256[2]",
                  "name": "X",
                  "type": "uint256[2]"
                },
                {
                  "internalType": "uint256[2]",
                  "name": "Y",
                  "type": "uint256[2]"
                }
              ],
              "internalType": "struct Pairing.G2Point",
              "name": "b",
              "type": "tuple"
            },
            {
              "components": [
                {
                  "internalType": "uint256",
                  "name": "X",
                  "type": "uint256"
                },
                {
                  "internalType": "uint256",
                  "name": "Y",
                  "type": "uint256"
                }
              ],
              "internalType": "struct Pairing.G1Point",
              "name": "c",
              "type": "tuple"
            }
          ],
          "internalType": "struct Verifier.Proof",
          "name": "proof",
          "type": "tuple"
        },
        {
          "internalType": "uint256[2]",
          "name": "inputs",
          "type": "uint256[2]"
        }
      ],
      "name": "mintNewNFT",
      "outputs": [],
      "payable": false,
      "stateMutability": "nonpayable",
      "type": "function"
    }
  ],
  "bytecode": "0x608060405260006014556040518060400160405280601381526020017f417374726f20486f7573696e6720546f6b656e000000000000000000000000008152506040518060400160405280600381526020017f41485400000000000000000000000000000000000000000000000000000000008152506040518060600160405280603f815260200162003f34603f9139336000806101000a81548173ffffffffffffffffffffffffffffffffffffffff021916908373ffffffffffffffffffffffffffffffffffffffff16021790555060008060146101000a81548160ff021916908315150217905550620001016301ffc9a760e01b6200019d60201b60201c565b620001196380ac58cd60e01b6200019d60201b60201c565b6200013163780e9d6360e01b6200019d60201b60201c565b82600f9080519060200190620001499291906200023d565b508160109080519060200190620001629291906200023d565b5080601190805190602001906200017b9291906200023d565b5062000194635b5e139f60e01b6200019d60201b60201c565b505050620002ec565b63ffffffff60e01b817bffffffffffffffffffffffffffffffffffffffffffffffffffffffff19161415620001d157600080fd5b6001806000837bffffffffffffffffffffffffffffffffffffffffffffffffffffffff19167bffffffffffffffffffffffffffffffffffffffffffffffffffffffff1916815260200190815260200160002060006101000a81548160ff02191690831515021790555050565b828054600181600116156101000203166002900490600052602060002090601f016020900481019282601f106200028057805160ff1916838001178555620002b1565b82800160010185558215620002b1579182015b82811115620002b057825182559160200191906001019062000293565b5b509050620002c09190620002c4565b5090565b620002e991905b80821115620002e5576000816000905550600101620002cb565b5090565b90565b613c3880620002fc6000396000f3fe608060405234801561001057600080fd5b50600436106101575760003560e01c806342842e0e116100c3578063a22cb4651161007c578063a22cb465146103fe578063b88d4fde1461041a578063bedb86fb14610436578063c87b56dd14610452578063e985e9c514610482578063f2fde38b146104b257610157565b806342842e0e146103025780634f6ccce71461031e5780636352211e1461034e57806370a082311461037e5780637a5b4f59146103ae578063832e1695146103ce57610157565b806323b872dd1161011557806323b872dd1461023257806327dc297e1461024e5780632f745c591461026a57806338bbfa501461029a578063403d81ae146102b657806340c10f19146102d257610157565b8062b80fda1461015c57806301ffc9a71461017a578063081812fc146101aa578063095ea7b3146101da5780630c4f65bd146101f657806318160ddd14610214575b600080fd5b6101646104ce565b60405161017191906138c7565b60405180910390f35b610194600480360361018f9190810190612e0a565b6104db565b6040516101a19190613673565b60405180910390f35b6101c460048036036101bf9190810190612e5c565b610543565b6040516101d191906135c8565b60405180910390f35b6101f460048036036101ef9190810190612c44565b610622565b005b6101fe610801565b60405161020b91906135c8565b60405180910390f35b61021c61082a565b60405161022991906138c7565b60405180910390f35b61024c60048036036102479190810190612b3e565b610837565b005b61026860048036036102639190810190612d37565b61085a565b005b610284600480360361027f9190810190612c44565b61089d565b60405161029191906138c7565b60405180910390f35b6102b460048036036102af9190810190612d8b565b610910565b005b6102d060048036036102cb9190810190612c80565b610915565b005b6102ec60048036036102e79190810190612c44565b610bf1565b6040516102f99190613673565b60405180910390f35b61031c60048036036103179190810190612b3e565b610ca1565b005b61033860048036036103339190810190612e5c565b610cc1565b60405161034591906138c7565b60405180910390f35b61036860048036036103639190810190612e5c565b610cf5565b60405161037591906135c8565b60405180910390f35b61039860048036036103939190810190612ad9565b610d32565b6040516103a591906138c7565b60405180910390f35b6103b6610d82565b6040516103c5939291906136b0565b60405180910390f35b6103e860048036036103e39190810190612ad9565b610f6c565b6040516103f591906138c7565b60405180910390f35b61041860048036036104139190810190612c08565b611090565b005b610434600480360361042f9190810190612b8d565b6111c6565b005b610450600480360361044b9190810190612ce5565b6111ec565b005b61046c60048036036104679190810190612e5c565b611380565b604051610479919061368e565b60405180910390f35b61049c60048036036104979190810190612b02565b611447565b6040516104a99190613673565b60405180910390f35b6104cc60048036036104c79190810190612ad9565b6114db565b005b6000601680549050905090565b600060016000837bffffffffffffffffffffffffffffffffffffffffffffffffffffffff19167bffffffffffffffffffffffffffffffffffffffffffffffffffffffff1916815260200190815260200160002060009054906101000a900460ff169050919050565b60008073ffffffffffffffffffffffffffffffffffffffff166003600084815260200190815260200160002060009054906101000a900473ffffffffffffffffffffffffffffffffffffffff1673ffffffffffffffffffffffffffffffffffffffff1614156105e7576040517f08c379a00000000000000000000000000000000000000000000000000000000081526004016105de906137bc565b60405180910390fd5b6003600083815260200190815260200160002060009054906101000a900473ffffffffffffffffffffffffffffffffffffffff169050919050565b600061062c610801565b90508273ffffffffffffffffffffffffffffffffffffffff166002600084815260200190815260200160002060009054906101000a900473ffffffffffffffffffffffffffffffffffffffff1673ffffffffffffffffffffffffffffffffffffffff1614156106d0576040517f08c379a00000000000000000000000000000000000000000000000000000000081526004016106c79061375c565b60405180910390fd5b8073ffffffffffffffffffffffffffffffffffffffff163373ffffffffffffffffffffffffffffffffffffffff161480610710575061070f8133611447565b5b61074f576040517f08c379a00000000000000000000000000000000000000000000000000000000081526004016107469061385c565b60405180910390fd5b826003600084815260200190815260200160002060006101000a81548173ffffffffffffffffffffffffffffffffffffffff021916908373ffffffffffffffffffffffffffffffffffffffff160217905550818373ffffffffffffffffffffffffffffffffffffffff163373ffffffffffffffffffffffffffffffffffffffff167f8c5be1e5ebec7d5bd14f71427d1e84f3dd0314c0f7b2291e5b200ac8c7c3b92560405160405180910390a4505050565b60008060009054906101000a900473ffffffffffffffffffffffffffffffffffffffff16905090565b6000600880549050905090565b61084133826115ea565b61084a57600080fd5b61085583838361167f565b505050565b610899828260006040519080825280601f01601f1916602001820160405280156108935781602001600182028038833980820191505090505b50610910565b5050565b60006108a883610d32565b82106108b357600080fd5b600660008473ffffffffffffffffffffffffffffffffffffffff1673ffffffffffffffffffffffffffffffffffffffff16815260200190815260200160002082815481106108fd57fe5b9060005260206000200154905092915050565b505050565b6000826000015160000151836000015160200151846020015160000151856020015160200151866040015160000151876040015160200151876040516020016109649796959493929190613547565b60405160208183030381529060405280519060200120905060006015600083815260200190815260200160002060000154148015610a045750600073ffffffffffffffffffffffffffffffffffffffff166015600083815260200190815260200160002060010160009054906101000a900473ffffffffffffffffffffffffffffffffffffffff1673ffffffffffffffffffffffffffffffffffffffff16145b610a43576040517f08c379a0000000000000000000000000000000000000000000000000000000008152600401610a3a906137fc565b60405180910390fd5b601360009054906101000a900473ffffffffffffffffffffffffffffffffffffffff1673ffffffffffffffffffffffffffffffffffffffff166343cd76fc84846040518363ffffffff1660e01b8152600401610aa092919061389c565b60206040518083038186803b158015610ab857600080fd5b505afa158015610acc573d6000803e3d6000fd5b505050506040513d601f19601f82011682018060405250610af09190810190612d0e565b610b2f576040517f08c379a0000000000000000000000000000000000000000000000000000000008152600401610b26906137dc565b60405180910390fd5b6000610b3a86610f6c565b905060168181548110610b4957fe5b906000526020600020906002020160156000848152602001908152602001600020600082015481600001556001820160009054906101000a900473ffffffffffffffffffffffffffffffffffffffff168160010160006101000a81548173ffffffffffffffffffffffffffffffffffffffff021916908373ffffffffffffffffffffffffffffffffffffffff160217905550905050610be88686610bf1565b50505050505050565b6000338073ffffffffffffffffffffffffffffffffffffffff166000809054906101000a900473ffffffffffffffffffffffffffffffffffffffff1673ffffffffffffffffffffffffffffffffffffffff1614610c83576040517f08c379a0000000000000000000000000000000000000000000000000000000008152600401610c7a9061383c565b60405180910390fd5b610c8d84846116a3565b610c96836116c4565b600191505092915050565b610cbc838383604051806020016040528060008152506111c6565b505050565b6000610ccb61082a565b8210610cd657600080fd5b60088281548110610ce357fe5b90600052602060002001549050919050565b60006002600083815260200190815260200160002060009054906101000a900473ffffffffffffffffffffffffffffffffffffffff169050919050565b6000610d7b600460008473ffffffffffffffffffffffffffffffffffffffff1673ffffffffffffffffffffffffffffffffffffffff1681526020019081526020016000206117e8565b9050919050565b6060806060600f60106011828054600181600116156101000203166002900480601f016020809104026020016040519081016040528092919081815260200182805460018160011615610100020316600290048015610e225780601f10610df757610100808354040283529160200191610e22565b820191906000526020600020905b815481529060010190602001808311610e0557829003601f168201915b50505050509250818054600181600116156101000203166002900480601f016020809104026020016040519081016040528092919081815260200182805460018160011615610100020316600290048015610ebe5780601f10610e9357610100808354040283529160200191610ebe565b820191906000526020600020905b815481529060010190602001808311610ea157829003601f168201915b50505050509150808054600181600116156101000203166002900480601f016020809104026020016040519081016040528092919081815260200182805460018160011615610100020316600290048015610f5a5780601f10610f2f57610100808354040283529160200191610f5a565b820191906000526020600020905b815481529060010190602001808311610f3d57829003601f168201915b50505050509050925092509250909192565b6000610f766126bc565b604051806040016040528060145481526020018473ffffffffffffffffffffffffffffffffffffffff168152509050601681908060018154018082558091505090600182039060005260206000209060020201600090919290919091506000820151816000015560208201518160010160006101000a81548173ffffffffffffffffffffffffffffffffffffffff021916908373ffffffffffffffffffffffffffffffffffffffff1602179055505050507f529aebee0fa53cdfb493ac455bd2a7b5924a502f5e34b85b84ebda0e84e62cb2816000015182602001516040516110609291906138e2565b60405180910390a16000601454905061108560016014546117f690919063ffffffff16565b508092505050919050565b3373ffffffffffffffffffffffffffffffffffffffff168273ffffffffffffffffffffffffffffffffffffffff1614156110c957600080fd5b80600560003373ffffffffffffffffffffffffffffffffffffffff1673ffffffffffffffffffffffffffffffffffffffff16815260200190815260200160002060008473ffffffffffffffffffffffffffffffffffffffff1673ffffffffffffffffffffffffffffffffffffffff16815260200190815260200160002060006101000a81548160ff0219169083151502179055508173ffffffffffffffffffffffffffffffffffffffff163373ffffffffffffffffffffffffffffffffffffffff167f17307eab39ab6107e8899845ad3d59bd9653f200f220920489ca2b5937696c31836040516111ba9190613673565b60405180910390a35050565b6111d1848484610837565b6111dd8484848461184b565b6111e657600080fd5b50505050565b338073ffffffffffffffffffffffffffffffffffffffff166000809054906101000a900473ffffffffffffffffffffffffffffffffffffffff1673ffffffffffffffffffffffffffffffffffffffff161461127c576040517f08c379a00000000000000000000000000000000000000000000000000000000081526004016112739061383c565b60405180910390fd5b600060149054906101000a900460ff16151582151514156112d2576040517f08c379a00000000000000000000000000000000000000000000000000000000081526004016112c99061379c565b60405180910390fd5b81600060146101000a81548160ff02191690831515021790555060011515600060149054906101000a900460ff1615151415611344577f62e78cea01bee320cd4e420270b5ea74000d11b0c9f74754ebdbfc544b05a2583360405161133791906135e3565b60405180910390a161137c565b7f5db9ee0a495bf2e6ff9c91a7834c1ba4fdd244a5e8aa4e537bd38aeae4b073aa3360405161137391906135e3565b60405180910390a15b5050565b606061138b82611962565b61139457600080fd5b601260008381526020019081526020016000208054600181600116156101000203166002900480601f01602080910402602001604051908101604052809291908181526020018280546001816001161561010002031660029004801561143b5780601f106114105761010080835404028352916020019161143b565b820191906000526020600020905b81548152906001019060200180831161141e57829003601f168201915b50505050509050919050565b6000600560008473ffffffffffffffffffffffffffffffffffffffff1673ffffffffffffffffffffffffffffffffffffffff16815260200190815260200160002060008373ffffffffffffffffffffffffffffffffffffffff1673ffffffffffffffffffffffffffffffffffffffff16815260200190815260200160002060009054906101000a900460ff16905092915050565b338073ffffffffffffffffffffffffffffffffffffffff166000809054906101000a900473ffffffffffffffffffffffffffffffffffffffff1673ffffffffffffffffffffffffffffffffffffffff161461156b576040517f08c379a00000000000000000000000000000000000000000000000000000000081526004016115629061383c565b60405180910390fd5b81600073ffffffffffffffffffffffffffffffffffffffff168173ffffffffffffffffffffffffffffffffffffffff1614156115dc576040517f08c379a00000000000000000000000000000000000000000000000000000000081526004016115d3906136fc565b60405180910390fd5b6115e5836119d4565b505050565b6000806115f683610cf5565b90508073ffffffffffffffffffffffffffffffffffffffff168473ffffffffffffffffffffffffffffffffffffffff16148061166557508373ffffffffffffffffffffffffffffffffffffffff1661164d84610543565b73ffffffffffffffffffffffffffffffffffffffff16145b8061167657506116758185611447565b5b91505092915050565b61168a838383611a77565b6116948382611cfe565b61169e8282611e9c565b505050565b6116ad8282611f63565b6116b78282611e9c565b6116c081612114565b5050565b6116cd81611962565b61170c576040517f08c379a00000000000000000000000000000000000000000000000000000000081526004016117039061381c565b60405180910390fd5b60606117ba60118054600181600116156101000203166002900480601f0160208091040260200160405190810160405280929190818152602001828054600181600116156101000203166002900480156117a75780601f1061177c576101008083540402835291602001916117a7565b820191906000526020600020905b81548152906001019060200180831161178a57829003601f168201915b50505050506117b584612160565b61228d565b9050806012600084815260200190815260200160002090805190602001906117e39291906126ec565b505050565b600081600001549050919050565b600080828401905083811015611841576040517f08c379a00000000000000000000000000000000000000000000000000000000081526004016118389061373c565b60405180910390fd5b8091505092915050565b600061186c8473ffffffffffffffffffffffffffffffffffffffff166122d1565b611879576001905061195a565b60008473ffffffffffffffffffffffffffffffffffffffff1663150b7a02338887876040518563ffffffff1660e01b81526004016118ba94939291906135fe565b602060405180830381600087803b1580156118d457600080fd5b505af11580156118e8573d6000803e3d6000fd5b505050506040513d601f19601f8201168201806040525061190c9190810190612e33565b905063150b7a0260e01b7bffffffffffffffffffffffffffffffffffffffffffffffffffffffff1916817bffffffffffffffffffffffffffffffffffffffffffffffffffffffff1916149150505b949350505050565b6000806002600084815260200190815260200160002060009054906101000a900473ffffffffffffffffffffffffffffffffffffffff169050600073ffffffffffffffffffffffffffffffffffffffff168173ffffffffffffffffffffffffffffffffffffffff161415915050919050565b60008060009054906101000a900473ffffffffffffffffffffffffffffffffffffffff169050816000806101000a81548173ffffffffffffffffffffffffffffffffffffffff021916908373ffffffffffffffffffffffffffffffffffffffff1602179055507feb38696426b5aa8881f6ba9f2f3e0ac06ee7ea6ffbe944120578d61191ef61018183604051611a6b92919061364a565b60405180910390a15050565b6002600082815260200190815260200160002060009054906101000a900473ffffffffffffffffffffffffffffffffffffffff1673ffffffffffffffffffffffffffffffffffffffff168373ffffffffffffffffffffffffffffffffffffffff1614611b18576040517f08c379a0000000000000000000000000000000000000000000000000000000008152600401611b0f9061371c565b60405180910390fd5b600073ffffffffffffffffffffffffffffffffffffffff168273ffffffffffffffffffffffffffffffffffffffff161415611b88576040517f08c379a0000000000000000000000000000000000000000000000000000000008152600401611b7f9061387c565b60405180910390fd5b6003600082815260200190815260200160002060006101000a81549073ffffffffffffffffffffffffffffffffffffffff0219169055611c05600460008573ffffffffffffffffffffffffffffffffffffffff1673ffffffffffffffffffffffffffffffffffffffff16815260200190815260200160002061231c565b611c4c600460008473ffffffffffffffffffffffffffffffffffffffff1673ffffffffffffffffffffffffffffffffffffffff16815260200190815260200160002061233f565b816002600083815260200190815260200160002060006101000a81548173ffffffffffffffffffffffffffffffffffffffff021916908373ffffffffffffffffffffffffffffffffffffffff160217905550808273ffffffffffffffffffffffffffffffffffffffff168473ffffffffffffffffffffffffffffffffffffffff167fddf252ad1be2c89b69c2b068fc378daa952ba7f163c4a11628f55a4df523b3ef60405160405180910390a4505050565b6000611d566001600660008673ffffffffffffffffffffffffffffffffffffffff1673ffffffffffffffffffffffffffffffffffffffff1681526020019081526020016000208054905061235590919063ffffffff16565b9050600060076000848152602001908152602001600020549050818114611e43576000600660008673ffffffffffffffffffffffffffffffffffffffff1673ffffffffffffffffffffffffffffffffffffffff1681526020019081526020016000208381548110611dc357fe5b9060005260206000200154905080600660008773ffffffffffffffffffffffffffffffffffffffff1673ffffffffffffffffffffffffffffffffffffffff1681526020019081526020016000208381548110611e1b57fe5b9060005260206000200181905550816007600083815260200190815260200160002081905550505b600660008573ffffffffffffffffffffffffffffffffffffffff1673ffffffffffffffffffffffffffffffffffffffff168152602001908152602001600020805480919060019003611e95919061276c565b5050505050565b600660008373ffffffffffffffffffffffffffffffffffffffff1673ffffffffffffffffffffffffffffffffffffffff168152602001908152602001600020805490506007600083815260200190815260200160002081905550600660008373ffffffffffffffffffffffffffffffffffffffff1673ffffffffffffffffffffffffffffffffffffffff1681526020019081526020016000208190806001815401808255809150509060018203906000526020600020016000909192909190915055505050565b611f6c81611962565b611fab576040517f08c379a0000000000000000000000000000000000000000000000000000000008152600401611fa29061381c565b60405180910390fd5b600073ffffffffffffffffffffffffffffffffffffffff168273ffffffffffffffffffffffffffffffffffffffff16141561201b576040517f08c379a00000000000000000000000000000000000000000000000000000000081526004016120129061377c565b60405180910390fd5b816002600083815260200190815260200160002060006101000a81548173ffffffffffffffffffffffffffffffffffffffff021916908373ffffffffffffffffffffffffffffffffffffffff1602179055506120b4600460008473ffffffffffffffffffffffffffffffffffffffff1673ffffffffffffffffffffffffffffffffffffffff16815260200190815260200160002061233f565b808273ffffffffffffffffffffffffffffffffffffffff16600073ffffffffffffffffffffffffffffffffffffffff167fddf252ad1be2c89b69c2b068fc378daa952ba7f163c4a11628f55a4df523b3ef60405160405180910390a45050565b6008805490506009600083815260200190815260200160002081905550600881908060018154018082558091505090600182039060005260206000200160009091929091909150555050565b606060008214156121a8576040518060400160405280600181526020017f30000000000000000000000000000000000000000000000000000000000000008152509050612288565b600082905060005b600082146121d2578080600101915050600a82816121ca57fe5b0491506121b0565b6060816040519080825280601f01601f1916602001820160405280156122075781602001600182028038833980820191505090505b50905060006001830390505b6000861461228057600a868161222557fe5b0660300160f81b8282806001900393508151811061223f57fe5b60200101907effffffffffffffffffffffffffffffffffffffffffffffffffffffffffffff1916908160001a905350600a868161227857fe5b049550612213565b819450505050505b919050565b60606122c9838360405180602001604052806000815250604051806020016040528060008152506040518060200160405280600081525061239f565b905092915050565b60008060007fc5d2460186f7233c927e7db2dcc703c0e500b653ca82273b7bfad8045d85a47060001b9050833f915080821415801561231357506000801b8214155b92505050919050565b6123346001826000015461235590919063ffffffff16565b816000018190555050565b6001816000016000828254019250508190555050565b600061239783836040518060400160405280601e81526020017f536166654d6174683a207375627472616374696f6e206f766572666c6f770000815250612661565b905092915050565b6060808690506060869050606086905060608690506060869050606081518351855187518951010101016040519080825280601f01601f1916602001820160405280156123fb5781602001600182028038833980820191505090505b509050606081905060008090506000809050600090505b88518110156124805788818151811061242757fe5b602001015160f81c60f81b83838060010194508151811061244457fe5b60200101907effffffffffffffffffffffffffffffffffffffffffffffffffffffffffffff1916908160001a9053508080600101915050612412565b600090505b87518110156124f35787818151811061249a57fe5b602001015160f81c60f81b8383806001019450815181106124b757fe5b60200101907effffffffffffffffffffffffffffffffffffffffffffffffffffffffffffff1916908160001a9053508080600101915050612485565b600090505b86518110156125665786818151811061250d57fe5b602001015160f81c60f81b83838060010194508151811061252a57fe5b60200101907effffffffffffffffffffffffffffffffffffffffffffffffffffffffffffff1916908160001a90535080806001019150506124f8565b600090505b85518110156125d95785818151811061258057fe5b602001015160f81c60f81b83838060010194508151811061259d57fe5b60200101907effffffffffffffffffffffffffffffffffffffffffffffffffffffffffffff1916908160001a905350808060010191505061256b565b600090505b845181101561264c578481815181106125f357fe5b602001015160f81c60f81b83838060010194508151811061261057fe5b60200101907effffffffffffffffffffffffffffffffffffffffffffffffffffffffffffff1916908160001a90535080806001019150506125de565b82995050505050505050505095945050505050565b60008383111582906126a9576040517f08c379a00000000000000000000000000000000000000000000000000000000081526004016126a0919061368e565b60405180910390fd5b5060008385039050809150509392505050565b604051806040016040528060008152602001600073ffffffffffffffffffffffffffffffffffffffff1681525090565b828054600181600116156101000203166002900490600052602060002090601f016020900481019282601f1061272d57805160ff191683800117855561275b565b8280016001018555821561275b579182015b8281111561275a57825182559160200191906001019061273f565b5b5090506127689190612798565b5090565b815481835581811115612793578183600052602060002091820191016127929190612798565b5b505050565b6127ba91905b808211156127b657600081600090555060010161279e565b5090565b90565b6000813590506127cc81613b82565b92915050565b600082601f8301126127e357600080fd5b60026127f66127f182613938565b61390b565b9150818385602084028201111561280c57600080fd5b60005b8381101561283c57816128228882612ac4565b84526020840193506020830192505060018101905061280f565b5050505092915050565b600082601f83011261285757600080fd5b600261286a6128658261395a565b61390b565b9150818385602084028201111561288057600080fd5b60005b838110156128b057816128968882612ac4565b845260208401935060208301925050600181019050612883565b5050505092915050565b6000813590506128c981613b99565b92915050565b6000815190506128de81613b99565b92915050565b6000813590506128f381613bb0565b92915050565b60008135905061290881613bc7565b92915050565b60008151905061291d81613bc7565b92915050565b600082601f83011261293457600080fd5b81356129476129428261397c565b61390b565b9150808252602083016020830185838301111561296357600080fd5b61296e838284613b25565b50505092915050565b600082601f83011261298857600080fd5b813561299b612996826139a8565b61390b565b915080825260208301602083018583830111156129b757600080fd5b6129c2838284613b25565b50505092915050565b6000604082840312156129dd57600080fd5b6129e7604061390b565b905060006129f784828501612ac4565b6000830152506020612a0b84828501612ac4565b60208301525092915050565b600060808284031215612a2957600080fd5b612a33604061390b565b90506000612a43848285016127d2565b6000830152506040612a57848285016127d2565b60208301525092915050565b60006101008284031215612a7657600080fd5b612a80606061390b565b90506000612a90848285016129cb565b6000830152506040612aa484828501612a17565b60208301525060c0612ab8848285016129cb565b60408301525092915050565b600081359050612ad381613bde565b92915050565b600060208284031215612aeb57600080fd5b6000612af9848285016127bd565b91505092915050565b60008060408385031215612b1557600080fd5b6000612b23858286016127bd565b9250506020612b34858286016127bd565b9150509250929050565b600080600060608486031215612b5357600080fd5b6000612b61868287016127bd565b9350506020612b72868287016127bd565b9250506040612b8386828701612ac4565b9150509250925092565b60008060008060808587031215612ba357600080fd5b6000612bb1878288016127bd565b9450506020612bc2878288016127bd565b9350506040612bd387828801612ac4565b925050606085013567ffffffffffffffff811115612bf057600080fd5b612bfc87828801612923565b91505092959194509250565b60008060408385031215612c1b57600080fd5b6000612c29858286016127bd565b9250506020612c3a858286016128ba565b9150509250929050565b60008060408385031215612c5757600080fd5b6000612c65858286016127bd565b9250506020612c7685828601612ac4565b9150509250929050565b6000806000806101808587031215612c9757600080fd5b6000612ca5878288016127bd565b9450506020612cb687828801612ac4565b9350506040612cc787828801612a63565b925050610140612cd987828801612846565b91505092959194509250565b600060208284031215612cf757600080fd5b6000612d05848285016128ba565b91505092915050565b600060208284031215612d2057600080fd5b6000612d2e848285016128cf565b91505092915050565b60008060408385031215612d4a57600080fd5b6000612d58858286016128e4565b925050602083013567ffffffffffffffff811115612d7557600080fd5b612d8185828601612977565b9150509250929050565b600080600060608486031215612da057600080fd5b6000612dae868287016128e4565b935050602084013567ffffffffffffffff811115612dcb57600080fd5b612dd786828701612977565b925050604084013567ffffffffffffffff811115612df457600080fd5b612e0086828701612923565b9150509250925092565b600060208284031215612e1c57600080fd5b6000612e2a848285016128f9565b91505092915050565b600060208284031215612e4557600080fd5b6000612e538482850161290e565b91505092915050565b600060208284031215612e6e57600080fd5b6000612e7c84828501612ac4565b91505092915050565b6000612e918383613503565b60208301905092915050565b6000612ea98383613521565b60208301905092915050565b612ebe81613aef565b82525050565b612ecd81613a71565b82525050565b612edc816139f3565b612ee68184613a39565b9250612ef1826139de565b8060005b83811015612f22578151612f098782612e85565b9650612f1483613a21565b925050600181019050612ef5565b505050505050565b612f33816139f3565b612f3d8184613a44565b9250612f48826139de565b8060005b83811015612f79578151612f608782612e9d565b9650612f6b83613a21565b925050600181019050612f4c565b505050505050565b612f8a816139e8565b612f948184613a2e565b9250612f9f826139d4565b8060005b83811015612fd0578151612fb78782612e85565b9650612fc283613a14565b925050600181019050612fa3565b505050505050565b612fe1816139e8565b612feb8184613a44565b9250612ff6826139d4565b8060005b8381101561302757815161300e8782612e9d565b965061301983613a14565b925050600181019050612ffa565b505050505050565b61303881613a83565b82525050565b6000613049826139fe565b6130538185613a4f565b9350613063818560208601613b34565b61306c81613b71565b840191505092915050565b600061308282613a09565b61308c8185613a60565b935061309c818560208601613b34565b6130a581613b71565b840191505092915050565b60006130bd601e83613a60565b91507f4e6577206f776e657220697320746865207a65726f20616464726573732e00006000830152602082019050919050565b60006130fd602883613a60565b91507f596f7520617265206e6f7420746865206f776e6572206f66207468652067697660008301527f656e20746f6b656e0000000000000000000000000000000000000000000000006020830152604082019050919050565b6000613163601b83613a60565b91507f536166654d6174683a206164646974696f6e206f766572666c6f7700000000006000830152602082019050919050565b60006131a3601b83613a60565b91507f596f7520616c7265616479206f776e207468697320746f6b656e2e00000000006000830152602082019050919050565b60006131e3601d83613a60565b91507f54686520676976656e206164647265737320697320696e76616c69642e0000006000830152602082019050919050565b6000613223602b83613a60565b91507f546865206e65772076616c7565206f66207061757365642068617320746f206260008301527f65206469666672656e742e0000000000000000000000000000000000000000006020830152604082019050919050565b6000613289601b83613a60565b91507f5468697320746f6b656e206973206e6f7420617070726f7665642e00000000006000830152602082019050919050565b60006132c9601783613a60565b91507f5468652070726f6f6620697320696e636f72726563742e0000000000000000006000830152602082019050919050565b6000613309601683613a60565b91507f536f6c7574696f6e20616c726561647920757365642e000000000000000000006000830152602082019050919050565b6000613349601983613a60565b91507f54686520746f6b656e20616c7265616479206578697374732e000000000000006000830152602082019050919050565b6000613389601e83613a60565b91507f596f7572206163636f756e74206973206e6f7420746865206f776e65722e00006000830152602082019050919050565b60006133c9601383613a60565b91507f596f75206e6565656420617070726f76616c2e000000000000000000000000006000830152602082019050919050565b6000613409603683613a60565b91507f54686520616464726573732c207468617420746f6b656e206973206265696e6760008301527f207472616e73666572656420697320696e76616c6964000000000000000000006020830152604082019050919050565b6040820160008201516134786000850182613503565b50602082015161348b6020850182613503565b50505050565b6080820160008201516134a76000850182612f81565b5060208201516134ba6040850182612f81565b50505050565b610100820160008201516134d76000850182613462565b5060208201516134ea6040850182613491565b5060408201516134fd60c0850182613462565b50505050565b61350c81613ae5565b82525050565b61351b81613ae5565b82525050565b61352a81613ae5565b82525050565b61354161353c82613ae5565b613b67565b82525050565b6000613553828a613530565b6020820191506135638289613530565b6020820191506135738288612fd8565b6040820191506135838287612fd8565b6040820191506135938286613530565b6020820191506135a38285613530565b6020820191506135b38284612f2a565b60408201915081905098975050505050505050565b60006020820190506135dd6000830184612ec4565b92915050565b60006020820190506135f86000830184612eb5565b92915050565b60006080820190506136136000830187612eb5565b6136206020830186612ec4565b61362d6040830185613512565b818103606083015261363f818461303e565b905095945050505050565b600060408201905061365f6000830185612ec4565b61366c6020830184612ec4565b9392505050565b6000602082019050613688600083018461302f565b92915050565b600060208201905081810360008301526136a88184613077565b905092915050565b600060608201905081810360008301526136ca8186613077565b905081810360208301526136de8185613077565b905081810360408301526136f28184613077565b9050949350505050565b60006020820190508181036000830152613715816130b0565b9050919050565b60006020820190508181036000830152613735816130f0565b9050919050565b6000602082019050818103600083015261375581613156565b9050919050565b6000602082019050818103600083015261377581613196565b9050919050565b60006020820190508181036000830152613795816131d6565b9050919050565b600060208201905081810360008301526137b581613216565b9050919050565b600060208201905081810360008301526137d58161327c565b9050919050565b600060208201905081810360008301526137f5816132bc565b9050919050565b60006020820190508181036000830152613815816132fc565b9050919050565b600060208201905081810360008301526138358161333c565b9050919050565b600060208201905081810360008301526138558161337c565b9050919050565b60006020820190508181036000830152613875816133bc565b9050919050565b60006020820190508181036000830152613895816133fc565b9050919050565b6000610140820190506138b260008301856134c0565b6138c0610100830184612ed3565b9392505050565b60006020820190506138dc6000830184613512565b92915050565b60006040820190506138f76000830185613512565b6139046020830184612ec4565b9392505050565b6000604051905081810181811067ffffffffffffffff8211171561392e57600080fd5b8060405250919050565b600067ffffffffffffffff82111561394f57600080fd5b602082029050919050565b600067ffffffffffffffff82111561397157600080fd5b602082029050919050565b600067ffffffffffffffff82111561399357600080fd5b601f19601f8301169050602081019050919050565b600067ffffffffffffffff8211156139bf57600080fd5b601f19601f8301169050602081019050919050565b6000819050919050565b6000819050919050565b600060029050919050565b600060029050919050565b600081519050919050565b600081519050919050565b6000602082019050919050565b6000602082019050919050565b600081905092915050565b600081905092915050565b600081905092915050565b600082825260208201905092915050565b600082825260208201905092915050565b6000613a7c82613ac5565b9050919050565b60008115159050919050565b6000819050919050565b60007fffffffff0000000000000000000000000000000000000000000000000000000082169050919050565b600073ffffffffffffffffffffffffffffffffffffffff82169050919050565b6000819050919050565b6000613afa82613b01565b9050919050565b6000613b0c82613b13565b9050919050565b6000613b1e82613ac5565b9050919050565b82818337600083830152505050565b60005b83811015613b52578082015181840152602081019050613b37565b83811115613b61576000848401525b50505050565b6000819050919050565b6000601f19601f8301169050919050565b613b8b81613a71565b8114613b9657600080fd5b50565b613ba281613a83565b8114613bad57600080fd5b50565b613bb981613a8f565b8114613bc457600080fd5b50565b613bd081613a99565b8114613bdb57600080fd5b50565b613be781613ae5565b8114613bf257600080fd5b5056fea365627a7a7231582077594570df83054e574e274152336a77207938296b97662d5d3976a873be2c9d6c6578706572696d656e74616cf564736f6c634300050c004068747470733a2f2f73332d75732d776573742d322e616d617a6f6e6177732e636f6d2f756461636974792d626c6f636b636861696e2f63617073746f6e652f",
  "source": "pragma solidity >=0.4.21 <0.6.0;\npragma experimental ABIEncoderV2;\n\nimport \"./Verifier.sol\";\nimport \"./ERC721Mintable.sol\";\nimport 'openzeppelin-solidity/contracts/math/SafeMath.sol';\n\ncontract SolnSquareVerifier is AstroHousing {\n    Verifier private VerifierAcc;\n\n    struct Solution {\n        uint256 index;\n        address account;\n    }\n\n    uint256 solutionIndex = 0;\n    mapping(bytes32=>Solution) private solutionSubmitted;\n    Solution[] private solutions;\n\n    event solutionAdded(uint256 solutionKey, address sender);\n    \n    function getSolutionLength() public view returns(uint256) {\n        return solutions.length;\n    }\n\n    using SafeMath for uint256;\n    function addSolution(address Solver) public returns(uint256) {\n        Solution memory newSolution = Solution({index: solutionIndex, account: Solver});\n        solutions.push(newSolution);\n\n        emit solutionAdded(newSolution.index, newSolution.account);\n        \n        uint256 currentIndex = solutionIndex;\n        solutionIndex.add(1);\n\n        return currentIndex;\n    }\n\n    function mintNewNFT(address to, uint256 tokenId, Verifier.Proof memory proof, uint[2] memory inputs) public {\n        bytes32 key = keccak256(abi.encodePacked(proof.a.X, proof.a.Y, proof.b.X, proof.b.Y, proof.c.X, proof.c.Y, inputs));\n\n        require((solutionSubmitted[key].index == 0) && (solutionSubmitted[key].account == address(0)), \"Solution already used.\");\n        require(VerifierAcc.verifyTx(proof, inputs), \"The proof is incorrect.\");\n\n        uint256 index = addSolution(to);\n        solutionSubmitted[key] = solutions[index];\n        super.mint(to, tokenId);\n    }\n}",
  "sourcePath": "D:/Udacity_nanodegree_blockchain/ND projects/Blockchain-Capstone/eth-contracts/contracts/SolnSquareVerifier.sol",
  "compiler": {
    "name": "solc",
    "version": "0.5.12+commit.7709ece9.Emscripten.clang"
  },
  "schemaVersion": "3.0.20",
  "updatedAt": "2022-01-19T01:01:25.346Z",
  "networkType": "ethereum",
  "devdoc": {
    "methods": {
      "isApprovedForAll(address,address)": {
        "details": "Tells whether an operator is approved by a given owner",
        "params": {
          "operator": "operator address which you want to query the approval of",
          "owner": "owner address which you want to query the approval of"
        },
        "return": "bool whether the given operator is approved by the given owner"
      },
      "setApprovalForAll(address,bool)": {
        "details": "Sets or unsets the approval of a given operator An operator is allowed to transfer all tokens of the sender on their behalf",
        "params": {
          "approved": "representing the status of the approval to be set",
          "to": "operator address to set the approval"
        }
      },
      "supportsInterface(bytes4)": {
        "details": "implement supportsInterface(bytes4) using a lookup table"
      },
      "tokenByIndex(uint256)": {
        "details": "Gets the token ID at a given index of all the tokens in this contract Reverts if the index is greater or equal to the total number of tokens",
        "params": {
          "index": "uint256 representing the index to be accessed of the tokens list"
        },
        "return": "uint256 token ID at the given index of the tokens list"
      },
      "tokenOfOwnerByIndex(address,uint256)": {
        "details": "Gets the token ID at a given index of the tokens list of the requested owner",
        "params": {
          "index": "uint256 representing the index to be accessed of the requested tokens list",
          "owner": "address owning the tokens list to be accessed"
        },
        "return": "uint256 token ID at the given index of the tokens list owned by the requested address"
      },
      "totalSupply()": {
        "details": "Gets the total amount of tokens stored by the contract",
        "return": "uint256 representing the total amount of tokens"
      }
    }
  },
  "userdoc": {
    "methods": {}
  }
}